:1000000079C00000A6C00000A4C00000A2C000008B
:10001000A0C000009EC000009CC000009AC000006C
:1000200098C0000096C0000094C0000092C000007C
:1000300090C000008EC000008CC000008AC000008C
:1000400088C0000086C0000084C0000082C000009C
:1000500080C000007EC000007CC0000012C4000010
:1000600078C00000D8C30000ADC3000072C000001B
:1000700070C000006EC000006CC000006AC00000CC
:1000800068C0000066C0000064C0000062C00000DC
:1000900060C000005EC000005CC000005AC00000EC
:1000A00058C0000056C0000054C0000052C00000FC
:1000B00050C000004EC000004CC000004AC000000C
:1000C00048C0000046C0000044C0000042C000001C
:1000D00040C000003EC000003CC000003AC000002C
:1000E00038C00000AE05CD05E0051806AA05660675
:1000F0007A06CB0711241FBECFEFD1E2DEBFCDBF02
:1001000000E00CBF11E1A0E0B2E0E2E8F2E100E0C3
:100110000BBF02C007900D92A838B107D9F722E1B2
:10012000A8E8B1E101C01D92A733B207E1F710E0E2
:10013000CAE7D0E000E005C021970109802FFE0149
:1001400065D7C937D10780E00807B1F7E4D30C942D
:100150003F0956CFCF92DF92EF92FF920F931F93FA
:10016000CF93DF936C017A018B01C0E0D0E0CE1514
:10017000DF0589F0D8016D918D01D601ED91FC91DB
:100180000190F081E02DC6011995892B11F47E01B3
:1001900002C02196ECCFC701DF91CF911F910F9143
:1001A000FF90EF90DF90CF900895089580E090E069
:1001B0000895FC01538D448D252F30E0842F90E06D
:1001C000821B930B541710F0CF9608950197089552
:1001D000FC01918D828D981761F0828DDF01A80F4F
:1001E000B11D5D968C91928D9F5F9F73928F90E071
:1001F00008958FEF9FEF0895FC01918D828D9817E0
:1002000031F0828DE80FF11D858D90E008958FEF1C
:100210009FEF0895FC01918D228D892F90E0805CE5
:100220009F4F821B91098F739927089584E991E16B
:10023000F1DF21E0892B09F420E0822F0895FC01F1
:10024000848DDF01A80FB11DA35ABF4F2C91848D5F
:1002500090E001968F739927848FA689B7892C9394
:10026000A089B1898C9180648C93938D848D98132F
:1002700006C00288F389E02D80818F7D80830895F8
:10028000EF92FF920F931F93CF93DF93EC0181E0E6
:10029000888F9B8D8C8D981305C0E889F9898081A2
:1002A00085FD23C0F62E0B8D10E00F5F1F4F0F73DF
:1002B0001127E02E8C8DE8120BC00FB607FCFACF89
:1002C000E889F989808185FFF5CFCE01B8DFF2CFCB
:1002D0008B8DFE01E80FF11DE35AFF4FF0820B8F6B
:1002E000EA89FB898081806207C0EE89FF8960838B
:1002F000E889F98980818064808381E090E0DF91E2
:10030000CF911F910F91FF90EF900895CF93DF93BE
:10031000EC01888D8823C1F0EA89FB89808185FD05
:1003200005C0A889B9898C9186FD0EC00FB607FC5F
:10033000F5CF808185FFF2CFA889B9898C9185FF9F
:10034000EDCFCE017CDFE8CFDF91CF91089580E043
:1003500090E0892B19F06ADF811125C080E090E0E0
:10036000892B41F080E090E0892B21F00E94000071
:1003700081111CC080E090E0892B41F080E090E08A
:10038000892B21F00E940000811113C080E090E0D1
:10039000892BA1F080E090E0892B81F00E94000081
:1003A00081110AC008950E940000D8CF0E94000069
:1003B000E1CF0E940000EACF0C94000008953FB7FF
:1003C000F89480918D1190918E11A0918F11B09120
:1003D000901126B5A89B05C02F3F19F00196A11DCD
:1003E000B11D3FBFBA2FA92F982F8827820F911DCB
:1003F000A11DB11DBC01CD0142E0660F771F881F12
:10040000991F4A95D1F708952FB7F89460918911F3
:1004100070918A1180918B1190918C112FBF08954A
:10042000CF92DF92EF92FF92CF93DF93EDDF6B01DC
:100430007C0184E98093BC00C0913112D0913212CA
:100440009091BC00892F807194FF17C02097C1F351
:10045000DBDFDC01CB018C199D09AE09BF09AE01C0
:1004600060E070E084179507A607B70728F310929D
:10047000BC0084E48093BC0081E0DF91CF91FF90C9
:10048000EF90DF90CF900895CF92DF92EF92FF929E
:10049000CF93DF938093BB00B7DF6B017C0184E8CF
:1004A0008093BC00C0913112D09132128091BC0077
:1004B00087FD18C02097D1F3A7DFDC01CB018C1991
:1004C0009D09AE09BF09AE0160E070E08417950791
:1004D000A607B70738F31092BC0084E48093BC00F1
:1004E00081E018C08091B900887F883291F08091B6
:1004F000B900C82FC87F8091B900887F803311F47C
:100500008FDF05C01092BC0084E48093BC008C2F68
:1005100001C080E0DF91CF91FF90EF90DF90CF900E
:1005200008958A3391F09FE9980F963010F487551B
:100530000AC09FEB980F963010F4875304C0805385
:100540008A3008F080E090E008958FEF9FEF0895E3
:10055000FC0180919211803411F4109292119091CB
:100560009111992369F0915090939111809192117A
:1005700091E0980F90939211E80FF11D80810895FA
:100580000895CF93DF93009771F0FC010190002054
:10059000E9F73197AF01481B590BBC0184E991E1A0
:1005A000D9DDEC0102C0C0E0D0E042E050E06AE1F9
:1005B00072E084E991E1CEDD8C0F9D1FDF91CF9138
:1005C000089559D64F925F926F927F92BF92CF92C9
:1005D000DF92EF92FF920F931F93CF93DF93F82E4A
:1005E000E92ED62F84EAD82EC4E490EAC92E24E856
:1005F000B22E0ADF2B013C01D092BC0000913112D7
:10060000109132128091BC0087FD12C001151105B6
:10061000C9F3FADEDC01CB0184199509A609B709F3
:1006200020E030E080179107A207B30738F32DC010
:100630008091B900887F883041F4C092BB00E4DE2D
:100640002B013C01B092BC0007C08091B900887FAB
:10065000803109F042C0F1CF009131121091321275
:100660008091BC0087FD16C001151105C9F3CCDED1
:10067000DC01CB0184199509A609B70920E030E017
:1006800080179107A207B30738F31092BC00C093FC
:10069000BC00AFCF8091B900887F8831A9F08091EC
:1006A000B900887F803481F01091B900187F2091C3
:1006B000B900287F203229F08091B900887F8834E2
:1006C000F1F4AEDE111195CF8E2DDEDE811126C044
:1006D0008F2DDADE8823C1F021C08091B900887F98
:1006E000883339F42091B9001092BC00C093BC004B
:1006F00002C02091B900287F09F07BCF9ECF1092D5
:10070000BC00C093BC00DECF8D2FBEDE811106C0C1
:1007100087DE8111FDCF80E090E002C081E090E0B3
:10072000DF91CF911F910F91FF90EF90DF90CF90CD
:10073000BF907F906F905F904F900895DF92EF92FF
:10074000FF920F931F93CF93DF9300D01F921F92BE
:10075000CDB7DEB77C01FE01319685E0DF011D9249
:100760008A95E9F78BE189839EE09D836A835B83A9
:100770004C838427682756279527D9019C938F019E
:1007800085E0D82EDE0EF80161918F01C7011ADFD6
:10079000892B29F08DE192E0F4DE81E006C0FFEFC5
:1007A000EF1AFF0AD012EFCF80E00F900F900F905A
:1007B0000F900F90DF91CF911F910F91FF90EF90CD
:1007C000DF9008951F920F920FB60F9211240BB66F
:1007D0000F922F933F934F935F936F937F938F93DA
:1007E0009F93AF93BF93EF93FF9384E991E127DD4C
:1007F000FF91EF91BF91AF919F918F917F916F91F9
:100800005F914F913F912F910F900BBE0F900FBEB4
:100810000F901F9018951F920F920FB60F921124F0
:100820000BB60F922F938F939F93EF93FF93E091CB
:10083000A411F091A5118081E091AA11F091AB1162
:1008400082FD12C090818091AD118F5F8F732091D6
:10085000AE11821751F0E091AD11F0E0EC56FE4E72
:10086000958F8093AD1101C08081FF91EF919F9191
:100870008F912F910F900BBE0F900FBE0F901F9076
:1008800018951F920F920FB60F9211242F933F933A
:100890008F939F93AF93BF938091891190918A1109
:1008A000A0918B11B0918C113091881123E0230F0E
:1008B0002D3720F40196A11DB11D05C026E8230F98
:1008C0000296A11DB11D20938811809389119093E8
:1008D0008A11A0938B11B0938C1180918D119091FE
:1008E0008E11A0918F11B09190110196A11DB11D93
:1008F00080938D1190938E11A0938F11B0939011CE
:10090000BF91AF919F918F913F912F910F900FBE0B
:100910000F901F901895CF93DF93CDB7DEB7C255D8
:10092000D1090FB6F894DEBF0FBECDBF789484B561
:10093000826084BD84B5816084BD85B5826085BDDB
:1009400085B5816085BD80916E00816080936E0069
:10095000109281008091810082608093810080915B
:10096000810081608093810080918000816080930C
:1009700080008091B10084608093B1008091B000CC
:1009800081608093B000809191008260809391009B
:1009900080919100816080939100809190008160AE
:1009A000809390008091A10082608093A10080914B
:1009B000A10081608093A1008091A000816080935C
:1009C000A00080912101826080932101809121010A
:1009D00081608093210180912001816080932001BA
:1009E00080917A00846080937A0080917A0082609E
:1009F00080937A0080917A00816080937A00809160
:100A00007A00806880937A001092C100D8DC4B0194
:100A10005C0150EDC52E57E0D52EE12CF12CCFDC3A
:100A2000DC01CB0188199909AA09BB09883E9340CA
:100A3000A105B10558F021E0C21AD108E108F1087A
:100A400068EE860E63E0961EA11CB11CC114D10491
:100A5000E104F10421F7E091A411F091A51182E0E5
:100A60008083E091A011F091A1111082E091A21178
:100A7000F091A3118FEC80831092AC11E091A8113A
:100A8000F091A91186E08083E091A611F091A71161
:100A9000808180618083E091A611F091A71180810F
:100AA00088608083E091A611F091A7118081806811
:100AB0008083E091A611F091A71180818F7D8083C2
:100AC00088E292E05EDD589A599A8091B9008E7F53
:100AD0008093B9008091B9008D7F8093B90088E43C
:100AE0008093B80084E48093BC0088EC90E09093FD
:100AF000321280933112589A599A8CE08093B80040
:100B000080E490E08BD24C0128961FAE289785E3B5
:100B100092E037DDC12CD12C312C212C412C512CD1
:100B2000E12CF12C712C01E010E05E0181E4A80EB3
:100B3000B11C96E09A0D2F969FAF2F97872D90E0CE
:100B40008730910508F0D2C0FC018827EE58FF4F8E
:100B50008F4F5CC29401A701552782C0209192114A
:100B600080919311E0910002F09101029091911116
:100B7000803409F480E0203409F420E0903408F057
:100B8000F5C13081A1E0B0E0AC0FBD1FA80FB11DD1
:100B90003C939F5F31968F5FE9C1CE010196D8DC0F
:100BA000C0DC7C01CE010196D3DCBBDC24E0EE0C82
:100BB000FF1C2A95E1F7E82AF92A32E0732E96C045
:100BC000CE010196C5DCADDC782ECE010196C0DCED
:100BD000A8DC7294F0EF7F222C967FAE2C972B9698
:100BE0001FAE2B972E968FAF2E972D961FAE2D975B
:100BF0002C964EAC5FAC2C972E96EEADFFAD2E979B
:100C00004E2A5F2ACE010196A3DC8BDC3C01CE018B
:100C100001969EDC86DC84299529A4E0660C771C6D
:100C2000AA95E1F72C0146285728B3E07B2E5EC039
:100C3000CE0101968DDC75DC682ECE01019688DC34
:100C400070DC6294E0EF6E22862909F44DC0813099
:100C500009F04CC041E1C42ED12C222423946ECF44
:100C6000C90188199909841795076CF5CE01019679
:100C700060962FAF609761963FAF619762964FAFD6
:100C8000629763965FAF639763DC4BDC3C01CE01F8
:100C900001965EDC46DC74E0660C771C7A95E1F721
:100CA00077248629972960962FAD609761963FAD8E
:100CB0006197F90181939F0163965FAD6397629697
:100CC0004FAD6297CDCF65E0762E10C0CE01019674
:100CD0003FDCCE0101963CDC211024C046E0C42E4E
:100CE000D12C56E0752E2ACF34E0732E222009F441
:100CF00025CF02C022242394F0E1CF16D10409F4B9
:100D00004FC02CF466E0C616D10461F017CF71E134
:100D1000C716D10409F4F6C083E1C816D10409F45A
:100D20006AC00CCF28961FAE2897632D70E09E01F5
:100D3000295B3F4F45E050E0C80100DD8111F3C061
:100D40000B5F1F4F28969FAD289786E8892784253B
:100D5000852528968FAF289796E0F501292F1192C7
:100D60002A95E9F7F501908390E8918353824482B4
:100D700085836501F60161916F01C80123DC892B30
:100D800009F0E8C00F5F1F4F2F96FFAD2F97FC11A2
:100D9000F1CF339490E1C92ED12C24E1722ECECE26
:100DA00028961FAE2897632D70E09E01295B3F4F68
:100DB00041E050E0C801C2DC8111B5C02896DFAC2B
:100DC000289780E1D8262896DFAE289760E1C801F1
:100DD0000596F8DB892B09F0BDC06D2DC80106967C
:100DE000F1DB892B09F0B6C0095F1F4F339483E113
:100DF000C82ED12CA3CE6DB67EB628961FAE2897EE
:100E0000670123E0C20ED11C632D70E09E01295BB7
:100E10003F4FA601C80192DC882319F087E492E0D5
:100E200056C0A8014B5F5F4F28962FAD289783E1EE
:100E300028276DB77EB76C197D090FB6F8947EBF71
:100E40000FBE6DBFEDB7FEB731962A96FFAFEEAF7E
:100E50002A97EDB7FEB781832A96EEADFFAD2A97AC
:100E6000E18212822E25F401ADB7BEB71496C401FB
:100E70008E0D9F1DE817F90721F031913D9323272F
:100E8000F9CF28962FAF28978A0102C00F5F1F4F16
:100E9000802F841B90E08C159D0500F52A96EEAD01
:100EA000FFAD2A97E80FF91F6081C80162964FAF26
:100EB000629763965FAF639785DB62964FAD6297EB
:100EC00063965FAD6397892B09F38DE192E059DB5F
:100ED0000FB6F8947EBE0FBE6DBE3FC028966FADB4
:100EE0002897C8016FDB892B81F70F5F1F4F339461
:100EF0000FB6F8947EBE0FBE6DBEC12CD12C212C36
:100F0000712C1CCE87E592E03CDB28961FAE28971B
:100F1000632D70E09E01295B3F4F41E050E0C80126
:100F20000DDC882319F087E492E016C02896FFAC08
:100F3000289781E1F8262896FFAE289761E1C8013D
:100F4000059640DB892B31F46F2DC80106963ADBFC
:100F5000892B19F08DE192E014DB61E082E090E0F2
:100F600047D087E692E00DDBF2D9FECF821300CEA8
:100F7000809392119093911180939311F0930102B9
:100F8000E0930002CE010196E3DACBDA792E771CEA
:100F90007724771CABCEE4E9F1E11382128288EE6C
:100FA00093E0A0E0B0E084839583A683B7838CE0D0
:100FB00092E09183808385EC90E09587848784EC30
:100FC00090E09787868780EC90E0918B808B81EC16
:100FD00090E0938B828B82EC90E0958B848B86ECF7
:100FE00090E0978B868B118E128E138E148E08953F
:100FF000262FF999FECF1FBA92BD81BD20BD0FB635
:10100000F894FA9AF99A0FBE01960895EE0FFF1F11
:10101000881F8BBF0790F691E02D1994CF93DF9333
:101020008230910510F482E090E0E0913512F09169
:10103000361220E030E0C0E0D0E0309711F140817E
:10104000518148175907C0F04817590761F4828148
:101050009381209719F09B838A832BC0909336123B
:101060008093351226C02115310519F04217530718
:1010700018F49A01BE01DF01EF010280F381E02D37
:10108000DCCF2115310509F1281B390B243031053E
:1010900090F412968D919C9113976115710521F032
:1010A000FB019383828304C09093361280933512A0
:1010B000FD01329644C0FD01E20FF31F819391932D
:1010C000225031092D933C933AC020913312309134
:1010D0003412232B41F42091040230910502309305
:1010E0003412209333122091020230910302211511
:1010F000310541F42DB73EB74091060250910702E9
:10110000241B350BE0913312F0913412E217F307F0
:10111000A0F42E1B3F0B2817390778F0AC014E5F67
:101120005F4F2417350748F04E0F5F1F509334125E
:10113000409333128193919302C0E0E0F0E0CF013D
:10114000DF91CF9108950F931F93CF93DF93009773
:1011500009F48CC0FC01329713821282009135127F
:10116000109136120115110581F420813181820F11
:10117000931F20913312309134122817390779F5D3
:10118000F0933412E093331271C0D80140E050E084
:10119000AE17BF0750F412962D913C911397AD01F5
:1011A0002115310509F1D901F3CF9D01DA0133830E
:1011B000228360817181860F971F8217930769F4DC
:1011C000EC0128813981260F371F2E5F3F4F318375
:1011D00020838A819B8193838283452B29F4F0931A
:1011E0003612E093351242C01396FC93EE93129799
:1011F000ED01499159919E01240F351FE217F30724
:1012000071F480819181840F951F029611969C93B1
:101210008E938281938113969C938E931297E0E034
:10122000F0E0D80112968D919C911397009719F0D8
:10123000F8018C01F6CF8D919C9198012E5F3F4F64
:10124000820F931F209133123091341228173907DF
:1012500069F4309729F4109236121092351202C0B8
:10126000138212821093341200933312DF91CF91C4
:101270001F910F91089581E090E0F89400C0F894D8
:02128000FFCF9E
:101282006B02000037128000000000004001AA003B
:10129200D90086010A01E800FC000D0A00575249F4
:1012A2005445204641494C00494E495449414C4914
:1012B20053494E470057524954494E4720544F20F4
:1012C200454550524F4D0057726974652044617410
:1012D20061204661696C004C454156452050524F91
:1012E20047204D4F444500454E44003A313030309E
:1012F20030303030303643313030303031364331B7
:1013020030303030313443313030303031324331AB
:10131200303030304141203A3130303031303030AD
:10132200313043313030303030454331303030307D
:10133200304343313030303030414331303030305F
:101342004138203A31303030323030303038433169
:101352003030303030364331303030303034433159
:101362003030303030324331303030304238203A51
:101372003130303033303030303043313030303053
:1013820046454330303030304643433030303030E1
:1013920046414330303030304342203A31303030F1
:1013A20034303030463843303030303046364330D7
:1013B20030303030463443303030303046324330D3
:1013C200303030304443203A3130303035303030F4
:1013D20046304330303030304545433030303030A5
:1013E2004543433030303030454243303030303086
:1013F2004542203A31303030363030304538433093
:101402003030303045364330303030304534433080
:101412003030303045324330303030304643203A7D
:10142200313030303730303045304330303030308A
:101432004445433030303030444343303030303034
:1014420044414330303030303043203A3130303054
:101452003830303044384330303030304436433026
:101462003030303044344330303030304432433026
:10147200303030303143203A313030303930303052
:1014820044304330303030304345433030303030F8
:1014920043434330303030304341433030303030DA
:1014A2003243203A313030304130303043384330EB
:1014B20030303030433643303030303043344330D4
:1014C2003030303043324330303030303343203AE2
:1014D20031303030423030304330433030303030D1
:1014E2004245433030303030424343303030303088
:1014F20042414330303030303443203A31303030A2
:10150200433030304238433030303030423643306E
:101512003030303042344330303030304232433079
:10152200303030303543203A313030304430303092
:10153200423043303030303041454330303030304B
:10154200414343303030303041414330303030302D
:101552003643203A31303030453030304138433034
:101562003030303035433032354630323445303227
:101572003532303235363032393630323535203A3E
:101582003130303046303030363330323637303228
:1015920036443032373130323735303237423032FA
:1015A20037463032383330323536203A3130303106
:1015B20030303030393630323839303238443032E7
:1015C2003931303230303030323130303234303004
:1015D200323730303345203A3130303131303030EB
:1015E20032413030324430303330303033333030C7
:1015F20030313031303030303034303130373031DA
:101602003136203A313030313230303030413031C1
:1016120030303030323230303235303032383030B3
:101622003242303032453030333130304342203A6A
:101632003130303133303030333430303032303199
:101642003030303030353031303830313042303176
:1016520030353035303530353539203A313030316A
:101662003430303030373035303830383038303848
:10167200303230323032303230413041303830382E
:10168200303430343446203A313030313530303035
:10169200303430343031303130313031303130313A
:1016A2003031303130333033303330333033303324
:1016B2003744203A31303031363030303033303305
:1016C20030343037303730373043304330433043B3
:1016D2003043304330433043303230323043203AAB
:1016E20031303031373030303032303230363036DF
:1016F20030363036303630363036303630423042A0
:1017020030423042304230423039203A313030318A
:101712003830303030423042303130323130323095
:10172200323030383038313032303430313032309B
:10173200343038303936203A313030313930303087
:101742003032303130323031303830343032303182
:101752003031303230343038313032303430383069
:101762003442203A31303031413030303830343048
:101772003230313030383034303230313830303449
:101782003032303138303430323031304439203A2E
:101792003130303142303030303830343032303124
:1017A2003038303430323031303130323034303819
:1017B20031303230343038303232203A3130303118
:1017C20043303030303130323034303831303230F2
:1017D20034303830303030303041304230323039CD
:1017E200304330444637203A3130303144303030A3
:1017F20030453038303730333034303130303030BB
:1018020030303030303030303030303030303030D6
:101812004641203A3130303145303030303030308E
:1018220030303030303030303030303030303030B6
:101832003030303030303030303030303046203A96
:10184200313030314630303030303030303030307E
:101852003132313131303030303030303030303080
:1018620030303030303030304343203A3130303253
:101872003030303030303030303030303030303066
:101882003030303030303030303030303030303056
:10189200313132344239203A313030323130303025
:1018A2003146424543464546443145324445424627
:1018B200434442463030453030434246323245306E
:1018C2004241203A313030323230303041304530CE
:1018D200423245303031433031443932414633307F
:1018E2004232303745314637344344304330203A70
:1018F2003130303233303030413143314536434577
:101902003146393230463932304642363046393243
:1019120031313234324639334639203A313030327D
:101922003430303033463933384639333946393337
:101932004146393342463933383039313035303225
:10194200393039314242203A31303032353030305C
:10195200303630324130393130373032423039313D
:10196200303830323330393130343032323345303E
:101972003437203A3130303236303030323330463C
:1019820032443337323046343031393641313144E2
:101992004231314430354330323645384545203ABC
:1019A20031303032373030303233304630323936FF
:1019B20041313144423131443230393330343032C2
:1019C20038303933303530323535203A31303032F3
:1019D20038303030393039333036303241303933C3
:1019E20030373032423039333038303238303931B2
:1019F200303030324137203A3130303239303030C5
:101A0200393039313031303241303931303230329F
:101A1200423039313033303230313936413131446C
:101A22003641203A31303032413030304231314467
:101A32003830393330303032393039333031303276
:101A42004130393330323032423039334342203A36
:101A52003130303242303030303330324246393138
:101A620041463931394639313846393133463931CF
:101A720032463931304639303241203A3130303213
:101A820043303030304642453046393031463930C5
:101A920031383935373839343834423538323630DE
:101AA200383442444645203A3130303244303030C6
:101AB200383442353831363038344244383542359C
:101AC200383236303835424438354235383136309E
:101AD2003441203A313030324530303038354244AA
:101AE20038303931364530303831363038303933A4
:101AF2003645303031303932383130304338203A9F
:101B0200313030324630303038303931383130309F
:101B12003832363038303933383130303830393184
:101B220038313030383136303833203A3130303392
:101B32003030303038303933383130303830393174
:101B42003830303038313630383039333830303060
:101B5200383039313433203A31303033313030306B
:101B62004231303038343630383039334231303027
:101B7200383039314230303038313630383039331C
:101B82004346203A31303033323030304230303018
:101B92003830393139313030383236303830393303
:101BA2003931303038303931393130303533203A0B
:101BB20031303033333030303831363038303933F9
:101BC20039313030383039313930303038313630DF
:101BD20038303933393030303133203A31303033E4
:101BE20034303030383039314131303038323630BB
:101BF2003830393341313030383039314131303099
:101C0200383136304432203A3130303335303030AA
:101C12003830393341313030383039314130303079
:101C2200383136303830393341303030383039316C
:101C32003933203A3130303336303030323130318E
:101C42003832363038303933323130313830393158
:101C52003231303138313630383039333244203A4B
:101C62003130303337303030323130313830393151
:101C72003230303138313630383039333230303139
:101C820038303931374130303839203A3130303319
:101C920038303030383436303830393337413030FC
:101CA20038303931374130303832363038303933E4
:101CB200374130303032203A313030333930303001
:101CC20038303931374130303831363038303933C5
:101CD20037413030383039313741303038303638AA
:101CE2004631203A313030334130303038303933B8
:101CF2003741303031303932433130304346453864
:101D02004431453046453031323439313431203A6C
:101D12003130303342303030303945343131453072
:101D2200463830313834393138383233393946303F
:101D320039304530383830463136203A3130303358
:101D420043303030393931464643303145383546F3
:101D520046453446413539314234393138453544C6
:101D6200394534463931203A31303033443030301D
:101D720046433031343539313534393138464237DA
:101D820046383934394339313239324232433933C0
:101D92003533203A313030334530303038464246E0
:101DA2003935454445393245393145304639324570
:101DB2003230453043323245323045303945203AAF
:101DC20031303033463030304432324541413234A2
:101DD200413339344231324332464237463839345C
:101DE20038303931303530323931203A31303034CF
:101DF20030303030393039313036303241303931AB
:101E02003037303242303931303830323246424661
:101E1200343039313746203A313030343130303095
:101E22003042303235303931304330323630393168
:101E3200304430323730393130453032334330314B
:101E42003932203A3130303432303030344430316B
:101E52003634314137353041383630413937304107
:101E62003238454536323136323345304246203AF1
:101E7200313030343330303037323036383130343C
:101E820039313034303846343845433038303933DC
:101E920030423032393039333944203A31303034FB
:101EA20034303030304330324130393330443032E4
:101EB20042303933304530323830393130393032CE
:101EC200393039314343203A3130303435303030D3
:101ED2003041303238393242323946344230393286
:101EE200304130324130393230393032303443309F
:101EF2003730203A313030343630303031303932C8
:101F02003041303231303932303930323330393198
:101F12003039303246373031343439313938203A79
:101F22003130303437303030464530313234393167
:101F3200463830313934393139393233303946342F
:101F420036434330343432333545203A313030343D
:101F5200383030303039463435344330353045301E
:101F620046413031333139374532333146313035FC
:101F7200303846303637203A31303034393030302C
:101F8200344443303838323745453538464634468E
:101F920038463446363443303830393138303030D0
:101FA2003739203A313030344130303038463737E3
:101FB20030374330383039313830303038463744B2
:101FC2003033433038303931383030303845203AC8
:101FD20031303034423030303837374638303933A8
:101FE2003830303033414330383442353846373771
:101FF20030324330383442353646203A313030348C
:102002004330303038463744383442443333433037
:102012003830393142303030384637373033433058
:10202200383039313531203A313030344430303083
:10203200423030303846374438303933423030302D
:102042003239433038303931393030303846373729
:102052003044203A3130303445303030303743303C
:102062003830393139303030384637443033433004
:102072003830393139303030383737463245203A06
:102082003130303446303030383039333930303016
:1020920031424330383039314130303038463737C9
:1020A20030374330383039314546203A31303035D7
:1020B20030303030413030303846374430334330BE
:1020C20038303931413030303837374638303933AB
:1020D200413030303132203A3130303531303030E9
:1020E2003044433038303931323030313846373786
:1020F2003037433038303931323030313846374476
:102102004431203A313030353230303030334330A0
:102112003830393132303031383737463830393368
:102122003230303145393246463045304234203A39
:102132003130303533303030454530464646314611
:1021420043463031384535443945344646433031CB
:1021520041353931423439313830203A3130303535
:1021620034303030384642374638393439433931E1
:102172003331313130334330323039353239323321
:10218200303143304535203A31303035353030301A
:10219200323932423243393338464246433131349E
:1021A200443130343039463434444346304539348E
:1021B2004435203A313030353630303030303030FE
:1021C2003441434645453046464631463838314625
:1021D2003842424630373930463639313438203A7F
:1021E2003038303537303030453032443139393497
:1021F20046383934464643463646203A3030303047
:08220200303030314646000087
:00000001FF
